{
  "_format": "hh-sol-artifact-1",
  "contractName": "CeloERC721",
  "sourceName": "contracts/CeloERC721.sol",
  "abi": [
    {
      "inputs": [
        {
          "internalType": "string",
          "name": "name",
          "type": "string"
        },
        {
          "internalType": "string",
          "name": "symbol",
          "type": "string"
        }
      ],
      "stateMutability": "nonpayable",
      "type": "constructor"
    },
    {
      "anonymous": false,
      "inputs": [
        {
          "indexed": true,
          "internalType": "address",
          "name": "owner",
          "type": "address"
        },
        {
          "indexed": true,
          "internalType": "address",
          "name": "approved",
          "type": "address"
        },
        {
          "indexed": true,
          "internalType": "uint256",
          "name": "tokenId",
          "type": "uint256"
        }
      ],
      "name": "Approval",
      "type": "event"
    },
    {
      "anonymous": false,
      "inputs": [
        {
          "indexed": true,
          "internalType": "address",
          "name": "owner",
          "type": "address"
        },
        {
          "indexed": true,
          "internalType": "address",
          "name": "operator",
          "type": "address"
        },
        {
          "indexed": false,
          "internalType": "bool",
          "name": "approved",
          "type": "bool"
        }
      ],
      "name": "ApprovalForAll",
      "type": "event"
    },
    {
      "anonymous": false,
      "inputs": [
        {
          "indexed": true,
          "internalType": "address",
          "name": "from",
          "type": "address"
        },
        {
          "indexed": true,
          "internalType": "address",
          "name": "to",
          "type": "address"
        },
        {
          "indexed": true,
          "internalType": "uint256",
          "name": "tokenId",
          "type": "uint256"
        }
      ],
      "name": "Transfer",
      "type": "event"
    },
    {
      "inputs": [
        {
          "internalType": "uint256",
          "name": "BidId",
          "type": "uint256"
        }
      ],
      "name": "BidURI",
      "outputs": [
        {
          "internalType": "string",
          "name": "",
          "type": "string"
        }
      ],
      "stateMutability": "view",
      "type": "function"
    },
    {
      "inputs": [],
      "name": "_EventTokenSearchIds",
      "outputs": [
        {
          "internalType": "uint256",
          "name": "",
          "type": "uint256"
        }
      ],
      "stateMutability": "view",
      "type": "function"
    },
    {
      "inputs": [
        {
          "internalType": "uint256",
          "name": "",
          "type": "uint256"
        },
        {
          "internalType": "uint256",
          "name": "",
          "type": "uint256"
        }
      ],
      "name": "_SearchedStore",
      "outputs": [
        {
          "internalType": "string",
          "name": "",
          "type": "string"
        }
      ],
      "stateMutability": "view",
      "type": "function"
    },
    {
      "inputs": [
        {
          "internalType": "uint256",
          "name": "_tokenId",
          "type": "uint256"
        }
      ],
      "name": "_getSearchedTokenURI",
      "outputs": [
        {
          "internalType": "string",
          "name": "",
          "type": "string"
        }
      ],
      "stateMutability": "view",
      "type": "function"
    },
    {
      "inputs": [
        {
          "internalType": "uint256",
          "name": "bidId",
          "type": "uint256"
        },
        {
          "internalType": "string",
          "name": "_bidURI",
          "type": "string"
        }
      ],
      "name": "_setBidURI",
      "outputs": [],
      "stateMutability": "nonpayable",
      "type": "function"
    },
    {
      "inputs": [
        {
          "internalType": "uint256",
          "name": "_eventId",
          "type": "uint256"
        },
        {
          "internalType": "string",
          "name": "_raised",
          "type": "string"
        }
      ],
      "name": "_setEventRaised",
      "outputs": [],
      "stateMutability": "nonpayable",
      "type": "function"
    },
    {
      "inputs": [
        {
          "internalType": "uint256",
          "name": "eventId",
          "type": "uint256"
        },
        {
          "internalType": "string",
          "name": "_eventURI",
          "type": "string"
        }
      ],
      "name": "_setEventURI",
      "outputs": [],
      "stateMutability": "nonpayable",
      "type": "function"
    },
    {
      "inputs": [
        {
          "internalType": "uint256",
          "name": "TokenBidId",
          "type": "uint256"
        },
        {
          "internalType": "uint256",
          "name": "TokenId",
          "type": "uint256"
        },
        {
          "internalType": "string",
          "name": "_BidURI",
          "type": "string"
        }
      ],
      "name": "_setTokenBid",
      "outputs": [],
      "stateMutability": "nonpayable",
      "type": "function"
    },
    {
      "inputs": [
        {
          "internalType": "uint256",
          "name": "EventTokenId",
          "type": "uint256"
        },
        {
          "internalType": "uint256",
          "name": "EventId",
          "type": "uint256"
        },
        {
          "internalType": "string",
          "name": "_tokenURI",
          "type": "string"
        }
      ],
      "name": "_setTokenEvent",
      "outputs": [],
      "stateMutability": "nonpayable",
      "type": "function"
    },
    {
      "inputs": [
        {
          "internalType": "uint256",
          "name": "tokenId",
          "type": "uint256"
        },
        {
          "internalType": "string",
          "name": "_tokenURI",
          "type": "string"
        }
      ],
      "name": "_setTokenURI",
      "outputs": [],
      "stateMutability": "nonpayable",
      "type": "function"
    },
    {
      "inputs": [
        {
          "internalType": "address",
          "name": "to",
          "type": "address"
        },
        {
          "internalType": "uint256",
          "name": "tokenId",
          "type": "uint256"
        }
      ],
      "name": "approve",
      "outputs": [],
      "stateMutability": "nonpayable",
      "type": "function"
    },
    {
      "inputs": [
        {
          "internalType": "address",
          "name": "owner",
          "type": "address"
        }
      ],
      "name": "balanceOf",
      "outputs": [
        {
          "internalType": "uint256",
          "name": "",
          "type": "uint256"
        }
      ],
      "stateMutability": "view",
      "type": "function"
    },
    {
      "inputs": [
        {
          "internalType": "address",
          "name": "_claimer",
          "type": "address"
        },
        {
          "internalType": "string",
          "name": "_tokenURI",
          "type": "string"
        },
        {
          "internalType": "uint256",
          "name": "_eventid",
          "type": "uint256"
        }
      ],
      "name": "claimToken",
      "outputs": [
        {
          "internalType": "uint256",
          "name": "",
          "type": "uint256"
        }
      ],
      "stateMutability": "nonpayable",
      "type": "function"
    },
    {
      "inputs": [
        {
          "internalType": "uint256",
          "name": "_tokenId",
          "type": "uint256"
        },
        {
          "internalType": "string",
          "name": "_bidURI",
          "type": "string"
        },
        {
          "internalType": "string",
          "name": "_updatedURI",
          "type": "string"
        },
        {
          "internalType": "uint256",
          "name": "_eventid",
          "type": "uint256"
        }
      ],
      "name": "createBid",
      "outputs": [],
      "stateMutability": "nonpayable",
      "type": "function"
    },
    {
      "inputs": [
        {
          "internalType": "string",
          "name": "_eventURI",
          "type": "string"
        }
      ],
      "name": "createEvent",
      "outputs": [
        {
          "internalType": "uint256",
          "name": "",
          "type": "uint256"
        }
      ],
      "stateMutability": "nonpayable",
      "type": "function"
    },
    {
      "inputs": [
        {
          "internalType": "uint256",
          "name": "eventId",
          "type": "uint256"
        }
      ],
      "name": "eventURI",
      "outputs": [
        {
          "internalType": "string",
          "name": "",
          "type": "string"
        }
      ],
      "stateMutability": "view",
      "type": "function"
    },
    {
      "inputs": [
        {
          "internalType": "uint256",
          "name": "tokenId",
          "type": "uint256"
        }
      ],
      "name": "getApproved",
      "outputs": [
        {
          "internalType": "address",
          "name": "",
          "type": "address"
        }
      ],
      "stateMutability": "view",
      "type": "function"
    },
    {
      "inputs": [
        {
          "internalType": "string",
          "name": "_bidURI",
          "type": "string"
        }
      ],
      "name": "getBidIdByUri",
      "outputs": [
        {
          "internalType": "uint256",
          "name": "",
          "type": "uint256"
        }
      ],
      "stateMutability": "view",
      "type": "function"
    },
    {
      "inputs": [
        {
          "internalType": "uint256",
          "name": "TokenID",
          "type": "uint256"
        }
      ],
      "name": "getBidsSearchToken",
      "outputs": [
        {
          "internalType": "string[]",
          "name": "",
          "type": "string[]"
        }
      ],
      "stateMutability": "view",
      "type": "function"
    },
    {
      "inputs": [
        {
          "internalType": "uint256",
          "name": "_eventId",
          "type": "uint256"
        }
      ],
      "name": "getEventRaised",
      "outputs": [
        {
          "internalType": "string",
          "name": "",
          "type": "string"
        }
      ],
      "stateMutability": "view",
      "type": "function"
    },
    {
      "inputs": [
        {
          "internalType": "uint256",
          "name": "EventId",
          "type": "uint256"
        },
        {
          "internalType": "string",
          "name": "_tokenURI",
          "type": "string"
        }
      ],
      "name": "getGetEventsTokenID",
      "outputs": [
        {
          "internalType": "uint256",
          "name": "",
          "type": "uint256"
        }
      ],
      "stateMutability": "view",
      "type": "function"
    },
    {
      "inputs": [
        {
          "internalType": "uint256",
          "name": "TokenID",
          "type": "uint256"
        }
      ],
      "name": "getTotalBid",
      "outputs": [
        {
          "internalType": "string[]",
          "name": "",
          "type": "string[]"
        }
      ],
      "stateMutability": "view",
      "type": "function"
    },
    {
      "inputs": [
        {
          "internalType": "string",
          "name": "_tokenURI",
          "type": "string"
        }
      ],
      "name": "gettokenIdByUri",
      "outputs": [
        {
          "internalType": "uint256",
          "name": "",
          "type": "uint256"
        }
      ],
      "stateMutability": "view",
      "type": "function"
    },
    {
      "inputs": [
        {
          "internalType": "uint256",
          "name": "EventID",
          "type": "uint256"
        }
      ],
      "name": "gettokenSearchEventTotal",
      "outputs": [
        {
          "internalType": "string[]",
          "name": "",
          "type": "string[]"
        }
      ],
      "stateMutability": "view",
      "type": "function"
    },
    {
      "inputs": [
        {
          "internalType": "address",
          "name": "owner",
          "type": "address"
        },
        {
          "internalType": "address",
          "name": "operator",
          "type": "address"
        }
      ],
      "name": "isApprovedForAll",
      "outputs": [
        {
          "internalType": "bool",
          "name": "",
          "type": "bool"
        }
      ],
      "stateMutability": "view",
      "type": "function"
    },
    {
      "inputs": [],
      "name": "name",
      "outputs": [
        {
          "internalType": "string",
          "name": "",
          "type": "string"
        }
      ],
      "stateMutability": "view",
      "type": "function"
    },
    {
      "inputs": [
        {
          "internalType": "uint256",
          "name": "tokenId",
          "type": "uint256"
        }
      ],
      "name": "ownerOf",
      "outputs": [
        {
          "internalType": "address",
          "name": "",
          "type": "address"
        }
      ],
      "stateMutability": "view",
      "type": "function"
    },
    {
      "inputs": [
        {
          "internalType": "address",
          "name": "from",
          "type": "address"
        },
        {
          "internalType": "address",
          "name": "to",
          "type": "address"
        },
        {
          "internalType": "uint256",
          "name": "tokenId",
          "type": "uint256"
        }
      ],
      "name": "safeTransferFrom",
      "outputs": [],
      "stateMutability": "nonpayable",
      "type": "function"
    },
    {
      "inputs": [
        {
          "internalType": "address",
          "name": "from",
          "type": "address"
        },
        {
          "internalType": "address",
          "name": "to",
          "type": "address"
        },
        {
          "internalType": "uint256",
          "name": "tokenId",
          "type": "uint256"
        },
        {
          "internalType": "bytes",
          "name": "_data",
          "type": "bytes"
        }
      ],
      "name": "safeTransferFrom",
      "outputs": [],
      "stateMutability": "nonpayable",
      "type": "function"
    },
    {
      "inputs": [
        {
          "internalType": "address",
          "name": "operator",
          "type": "address"
        },
        {
          "internalType": "bool",
          "name": "approved",
          "type": "bool"
        }
      ],
      "name": "setApprovalForAll",
      "outputs": [],
      "stateMutability": "nonpayable",
      "type": "function"
    },
    {
      "inputs": [
        {
          "internalType": "bytes4",
          "name": "interfaceId",
          "type": "bytes4"
        }
      ],
      "name": "supportsInterface",
      "outputs": [
        {
          "internalType": "bool",
          "name": "",
          "type": "bool"
        }
      ],
      "stateMutability": "view",
      "type": "function"
    },
    {
      "inputs": [],
      "name": "symbol",
      "outputs": [
        {
          "internalType": "string",
          "name": "",
          "type": "string"
        }
      ],
      "stateMutability": "view",
      "type": "function"
    },
    {
      "inputs": [
        {
          "internalType": "uint256",
          "name": "tokenId",
          "type": "uint256"
        }
      ],
      "name": "tokenURI",
      "outputs": [
        {
          "internalType": "string",
          "name": "",
          "type": "string"
        }
      ],
      "stateMutability": "view",
      "type": "function"
    },
    {
      "inputs": [],
      "name": "totalEvent",
      "outputs": [
        {
          "internalType": "uint256",
          "name": "",
          "type": "uint256"
        }
      ],
      "stateMutability": "view",
      "type": "function"
    },
    {
      "inputs": [],
      "name": "totalSupply",
      "outputs": [
        {
          "internalType": "uint256",
          "name": "",
          "type": "uint256"
        }
      ],
      "stateMutability": "view",
      "type": "function"
    },
    {
      "inputs": [
        {
          "internalType": "address",
          "name": "from",
          "type": "address"
        },
        {
          "internalType": "address",
          "name": "to",
          "type": "address"
        },
        {
          "internalType": "uint256",
          "name": "tokenId",
          "type": "uint256"
        }
      ],
      "name": "transferFrom",
      "outputs": [],
      "stateMutability": "nonpayable",
      "type": "function"
    }
  ],
  "bytecode": "0x60806040523480156200001157600080fd5b50604051620043e3380380620043e38339818101604052810190620000379190620001a3565b818181600090805190602001906200005192919062000075565b5080600190805190602001906200006a92919062000075565b5050505050620003ac565b8280546200008390620002bd565b90600052602060002090601f016020900481019282620000a75760008555620000f3565b82601f10620000c257805160ff1916838001178555620000f3565b82800160010185558215620000f3579182015b82811115620000f2578251825591602001919060010190620000d5565b5b50905062000102919062000106565b5090565b5b808211156200012157600081600090555060010162000107565b5090565b60006200013c620001368462000251565b62000228565b9050828152602081018484840111156200015b576200015a6200038c565b5b6200016884828562000287565b509392505050565b600082601f83011262000188576200018762000387565b5b81516200019a84826020860162000125565b91505092915050565b60008060408385031215620001bd57620001bc62000396565b5b600083015167ffffffffffffffff811115620001de57620001dd62000391565b5b620001ec8582860162000170565b925050602083015167ffffffffffffffff81111562000210576200020f62000391565b5b6200021e8582860162000170565b9150509250929050565b60006200023462000247565b9050620002428282620002f3565b919050565b6000604051905090565b600067ffffffffffffffff8211156200026f576200026e62000358565b5b6200027a826200039b565b9050602081019050919050565b60005b83811015620002a75780820151818401526020810190506200028a565b83811115620002b7576000848401525b50505050565b60006002820490506001821680620002d657607f821691505b60208210811415620002ed57620002ec62000329565b5b50919050565b620002fe826200039b565b810181811067ffffffffffffffff8211171562000320576200031f62000358565b5b80604052505050565b7f4e487b7100000000000000000000000000000000000000000000000000000000600052602260045260246000fd5b7f4e487b7100000000000000000000000000000000000000000000000000000000600052604160045260246000fd5b600080fd5b600080fd5b600080fd5b600080fd5b6000601f19601f8301169050919050565b61402780620003bc6000396000f3fe608060405234801561001057600080fd5b506004361061021c5760003560e01c80636352211e11610125578063aed47961116100ad578063d45fc5161161007c578063d45fc516146106cf578063d654e993146106ff578063e08033d31461071b578063e985e9c514610737578063eb1d234d146107675761021c565b8063aed4796114610623578063b10a5dfa14610653578063b88d4fde14610683578063c87b56dd1461069f5761021c565b8063932a196b116100f4578063932a196b1461055957806395d89b41146105895780639bc2bc71146105a7578063a0fd0c6a146105d7578063a22cb465146106075761021c565b80636352211e146104ab57806370a08231146104db5780637cedbc1e1461050b5780637eadfa6a1461053b5761021c565b80631cd043d6116101a85780633592dd80116101775780633592dd80146103e357806342842e0e146103ff578063446a92e31461041b5780634eb083ec1461044b5780635154380a1461047b5761021c565b80631cd043d61461034b57806323b872dd1461036757806328520ab71461038357806335011d90146103b35761021c565b8063095ea7b3116101ef578063095ea7b3146102bb5780630da3c49c146102d7578063144cbca6146102f35780631677bf081461031157806318160ddd1461032d5761021c565b8063015388681461022157806301ffc9a71461023d57806306fdde031461026d578063081812fc1461028b575b600080fd5b61023b60048036038101906102369190612e70565b610797565b005b61025760048036038101906102529190612da0565b61080b565b60405161026491906134a7565b60405180910390f35b6102756108ed565b60405161028291906134c2565b60405180910390f35b6102a560048036038101906102a09190612e43565b61097f565b6040516102b2919061341e565b60405180910390f35b6102d560048036038101906102d09190612d60565b610a04565b005b6102f160048036038101906102ec9190612ecc565b610b1c565b005b6102fb610c3c565b60405161030891906136c4565b60405180910390f35b61032b60048036038101906103269190612e70565b610c42565b005b610335610c6e565b60405161034291906136c4565b60405180910390f35b61036560048036038101906103609190612e70565b610c78565b005b610381600480360381019061037c9190612bdb565b610d01565b005b61039d60048036038101906103989190612e70565b610d61565b6040516103aa91906136c4565b60405180910390f35b6103cd60048036038101906103c89190612cf1565b610e3a565b6040516103da91906136c4565b60405180910390f35b6103fd60048036038101906103f89190612fab565b610e9d565b005b61041960048036038101906104149190612bdb565b610ee1565b005b61043560048036038101906104309190612e43565b610f01565b60405161044291906134c2565b60405180910390f35b61046560048036038101906104609190612e43565b610fa6565b60405161047291906134c2565b60405180910390f35b61049560048036038101906104909190612e43565b61104b565b6040516104a29190613485565b60405180910390f35b6104c560048036038101906104c09190612e43565b6111fb565b6040516104d2919061341e565b60405180910390f35b6104f560048036038101906104f09190612b6e565b6112ad565b60405161050291906136c4565b60405180910390f35b61052560048036038101906105209190612e43565b611365565b60405161053291906134c2565b60405180910390f35b61054361141e565b60405161055091906136c4565b60405180910390f35b610573600480360381019061056e9190612dfa565b611428565b60405161058091906136c4565b60405180910390f35b610591611497565b60405161059e91906134c2565b60405180910390f35b6105c160048036038101906105bc9190612dfa565b611529565b6040516105ce91906136c4565b60405180910390f35b6105f160048036038101906105ec9190612e43565b61159a565b6040516105fe91906134c2565b60405180910390f35b610621600480360381019061061c9190612cb1565b61163f565b005b61063d60048036038101906106389190612e43565b611655565b60405161064a9190613485565b60405180910390f35b61066d60048036038101906106689190612f6b565b611805565b60405161067a91906134c2565b60405180910390f35b61069d60048036038101906106989190612c2e565b6118b5565b005b6106b960048036038101906106b49190612e43565b611917565b6040516106c691906134c2565b60405180910390f35b6106e960048036038101906106e49190612dfa565b611a04565b6040516106f691906136c4565b60405180910390f35b61071960048036038101906107149190612fab565b611a73565b005b61073560048036038101906107309190612e70565b611ab7565b005b610751600480360381019061074c9190612b9b565b611ae3565b60405161075e91906134a7565b60405180910390f35b610781600480360381019061077c9190612e43565b611b77565b60405161078e9190613485565b60405180910390f35b6107a082611d27565b6107df576040517f08c379a00000000000000000000000000000000000000000000000000000000081526004016107d690613644565b60405180910390fd5b806012600084815260200190815260200160002090805190602001906108069291906128cb565b505050565b60007f80ac58cd000000000000000000000000000000000000000000000000000000007bffffffffffffffffffffffffffffffffffffffffffffffffffffffff1916827bffffffffffffffffffffffffffffffffffffffffffffffffffffffff191614806108d657507f5b5e139f000000000000000000000000000000000000000000000000000000007bffffffffffffffffffffffffffffffffffffffffffffffffffffffff1916827bffffffffffffffffffffffffffffffffffffffffffffffffffffffff1916145b806108e657506108e582611d93565b5b9050919050565b6060600080546108fc90613979565b80601f016020809104026020016040519081016040528092919081815260200182805461092890613979565b80156109755780601f1061094a57610100808354040283529160200191610975565b820191906000526020600020905b81548152906001019060200180831161095857829003601f168201915b5050505050905090565b600061098a82611d27565b6109c9576040517f08c379a00000000000000000000000000000000000000000000000000000000081526004016109c090613624565b60405180910390fd5b6004600083815260200190815260200160002060009054906101000a900473ffffffffffffffffffffffffffffffffffffffff169050919050565b6000610a0f826111fb565b90508073ffffffffffffffffffffffffffffffffffffffff168373ffffffffffffffffffffffffffffffffffffffff161415610a80576040517f08c379a0000000000000000000000000000000000000000000000000000000008152600401610a7790613684565b60405180910390fd5b8073ffffffffffffffffffffffffffffffffffffffff16610a9f611dfd565b73ffffffffffffffffffffffffffffffffffffffff161480610ace5750610acd81610ac8611dfd565b611ae3565b5b610b0d576040517f08c379a0000000000000000000000000000000000000000000000000000000008152600401610b04906135a4565b60405180910390fd5b610b178383611e05565b505050565b6000610bc382601260008881526020019081526020016000208054610b4090613979565b80601f0160208091040260200160405190810160405280929190818152602001828054610b6c90613979565b8015610bb95780601f10610b8e57610100808354040283529160200191610bb9565b820191906000526020600020905b815481529060010190602001808311610b9c57829003601f168201915b5050505050610d61565b905082601260008781526020019081526020016000209080519060200190610bec9291906128cb565b50610bf8818385610e9d565b610c05600a548686611a73565b600a6000815480929190610c18906139dc565b919050555060076000815480929190610c30906139dc565b91905055505050505050565b600d5481565b80601460008481526020019081526020016000209080519060200190610c699291906128cb565b505050565b6000600654905090565b80601360008481526020019081526020016000209080519060200190610c9f9291906128cb565b506040518060400160405280600181526020017f3000000000000000000000000000000000000000000000000000000000000000815250601460008481526020019081526020016000209080519060200190610cfc9291906128cb565b505050565b610d12610d0c611dfd565b82611ebe565b610d51576040517f08c379a0000000000000000000000000000000000000000000000000000000008152600401610d48906136a4565b60405180910390fd5b610d5c838383611f9c565b505050565b600080600090505b600954811015610e2e57610d7c84612203565b80519060200120600e6000838152602001908152602001600020600060028110610da957610da8613ae3565b5b01604051610db79190613407565b6040518091039020148015610e0d57508280519060200120600e6000838152602001908152602001600020600160028110610df557610df4613ae3565b5b01604051610e039190613407565b6040518091039020145b15610e1b5780915050610e34565b8080610e26906139dc565b915050610d69565b50600090505b92915050565b6000610e4884600654612364565b610e5460065484610797565b610e616009548385610e9d565b60066000815480929190610e74906139dc565b919050555060096000815480929190610e8c906139dc565b919050555060065490509392505050565b6040518060400160405280610eb184612203565b815260200182815250600e6000858152602001908152602001600020906002610edb929190612951565b50505050565b610efc838383604051806020016040528060008152506118b5565b505050565b6060601160008381526020019081526020016000208054610f2190613979565b80601f0160208091040260200160405190810160405280929190818152602001828054610f4d90613979565b8015610f9a5780601f10610f6f57610100808354040283529160200191610f9a565b820191906000526020600020905b815481529060010190602001808311610f7d57829003601f168201915b50505050509050919050565b6060601460008381526020019081526020016000208054610fc690613979565b80601f0160208091040260200160405190810160405280929190818152602001828054610ff290613979565b801561103f5780601f106110145761010080835404028352916020019161103f565b820191906000526020600020905b81548152906001019060200180831161102257829003601f168201915b50505050509050919050565b60606000600a67ffffffffffffffff81111561106a57611069613b12565b5b60405190808252806020026020018201604052801561109d57816020015b60608152602001906001900390816110885790505b5090506000805b600a548110156111f0576110b785612203565b80519060200120600f60008381526020019081526020016000206000600281106110e4576110e3613ae3565b5b016040516110f29190613407565b604051809103902014156111dd57600f600082815260200190815260200160002060016002811061112657611125613ae3565b5b01805461113290613979565b80601f016020809104026020016040519081016040528092919081815260200182805461115e90613979565b80156111ab5780601f10611180576101008083540402835291602001916111ab565b820191906000526020600020905b81548152906001019060200180831161118e57829003601f168201915b50505050508383815181106111c3576111c2613ae3565b5b602002602001018190525081806111d9906139dc565b9250505b80806111e8906139dc565b9150506110a4565b508192505050919050565b6000806002600084815260200190815260200160002060009054906101000a900473ffffffffffffffffffffffffffffffffffffffff169050600073ffffffffffffffffffffffffffffffffffffffff168173ffffffffffffffffffffffffffffffffffffffff1614156112a4576040517f08c379a000000000000000000000000000000000000000000000000000000000815260040161129b906135e4565b60405180910390fd5b80915050919050565b60008073ffffffffffffffffffffffffffffffffffffffff168273ffffffffffffffffffffffffffffffffffffffff16141561131e576040517f08c379a0000000000000000000000000000000000000000000000000000000008152600401611315906135c4565b60405180910390fd5b600360008373ffffffffffffffffffffffffffffffffffffffff1673ffffffffffffffffffffffffffffffffffffffff168152602001908152602001600020549050919050565b60606010600083815260200190815260200160002060006002811061138d5761138c613ae3565b5b01805461139990613979565b80601f01602080910402602001604051908101604052809291908181526020018280546113c590613979565b80156114125780601f106113e757610100808354040283529160200191611412565b820191906000526020600020905b8154815290600101906020018083116113f557829003601f168201915b50505050509050919050565b6000600854905090565b600080600090505b60065481101561148c578280519060200120601260008381526020019081526020016000206040516114629190613407565b604051809103902014156114795780915050611492565b8080611484906139dc565b915050611430565b50600090505b919050565b6060600180546114a690613979565b80601f01602080910402602001604051908101604052809291908181526020018280546114d290613979565b801561151f5780601f106114f45761010080835404028352916020019161151f565b820191906000526020600020905b81548152906001019060200180831161150257829003601f168201915b5050505050905090565b600061153760085483610c78565b6115786008546040518060400160405280600181526020017f3000000000000000000000000000000000000000000000000000000000000000815250610c42565b6008600081548092919061158b906139dc565b91905055506008549050919050565b60606013600083815260200190815260200160002080546115ba90613979565b80601f01602080910402602001604051908101604052809291908181526020018280546115e690613979565b80156116335780601f1061160857610100808354040283529160200191611633565b820191906000526020600020905b81548152906001019060200180831161161657829003601f168201915b50505050509050919050565b61165161164a611dfd565b838361253e565b5050565b60606000600a67ffffffffffffffff81111561167457611673613b12565b5b6040519080825280602002602001820160405280156116a757816020015b60608152602001906001900390816116925790505b5090506000805b600a548110156117fa576116c185612203565b80519060200120600f60008381526020019081526020016000206000600281106116ee576116ed613ae3565b5b016040516116fc9190613407565b604051809103902014156117e757600f60008281526020019081526020016000206001600281106117305761172f613ae3565b5b01805461173c90613979565b80601f016020809104026020016040519081016040528092919081815260200182805461176890613979565b80156117b55780601f1061178a576101008083540402835291602001916117b5565b820191906000526020600020905b81548152906001019060200180831161179857829003601f168201915b50505050508383815181106117cd576117cc613ae3565b5b602002602001018190525081806117e3906139dc565b9250505b80806117f2906139dc565b9150506116ae565b508192505050919050565b6010602052816000526040600020816002811061182157600080fd5b0160009150915050805461183490613979565b80601f016020809104026020016040519081016040528092919081815260200182805461186090613979565b80156118ad5780601f10611882576101008083540402835291602001916118ad565b820191906000526020600020905b81548152906001019060200180831161189057829003601f168201915b505050505081565b6118c66118c0611dfd565b83611ebe565b611905576040517f08c379a00000000000000000000000000000000000000000000000000000000081526004016118fc906136a4565b60405180910390fd5b611911848484846126ab565b50505050565b606061192282611d27565b611961576040517f08c379a000000000000000000000000000000000000000000000000000000000815260040161195890613664565b60405180910390fd5b60126000838152602001908152602001600020805461197f90613979565b80601f01602080910402602001604051908101604052809291908181526020018280546119ab90613979565b80156119f85780601f106119cd576101008083540402835291602001916119f8565b820191906000526020600020905b8154815290600101906020018083116119db57829003601f168201915b50505050509050919050565b600080600090505b600754811015611a6857828051906020012060116000838152602001908152602001600020604051611a3e9190613407565b60405180910390201415611a555780915050611a6e565b8080611a60906139dc565b915050611a0c565b50600090505b919050565b6040518060400160405280611a8784612203565b815260200182815250600f6000858152602001908152602001600020906002611ab1929190612951565b50505050565b80601160008481526020019081526020016000209080519060200190611ade9291906128cb565b505050565b6000600560008473ffffffffffffffffffffffffffffffffffffffff1673ffffffffffffffffffffffffffffffffffffffff16815260200190815260200160002060008373ffffffffffffffffffffffffffffffffffffffff1673ffffffffffffffffffffffffffffffffffffffff16815260200190815260200160002060009054906101000a900460ff16905092915050565b60606000600a67ffffffffffffffff811115611b9657611b95613b12565b5b604051908082528060200260200182016040528015611bc957816020015b6060815260200190600190039081611bb45790505b5090506000805b600954811015611d1c57611be385612203565b80519060200120600e6000838152602001908152602001600020600060028110611c1057611c0f613ae3565b5b01604051611c1e9190613407565b60405180910390201415611d0957600e6000828152602001908152602001600020600160028110611c5257611c51613ae3565b5b018054611c5e90613979565b80601f0160208091040260200160405190810160405280929190818152602001828054611c8a90613979565b8015611cd75780601f10611cac57610100808354040283529160200191611cd7565b820191906000526020600020905b815481529060010190602001808311611cba57829003601f168201915b5050505050838381518110611cef57611cee613ae3565b5b60200260200101819052508180611d05906139dc565b9250505b8080611d14906139dc565b915050611bd0565b508192505050919050565b60008073ffffffffffffffffffffffffffffffffffffffff166002600084815260200190815260200160002060009054906101000a900473ffffffffffffffffffffffffffffffffffffffff1673ffffffffffffffffffffffffffffffffffffffff1614159050919050565b60007f01ffc9a7000000000000000000000000000000000000000000000000000000007bffffffffffffffffffffffffffffffffffffffffffffffffffffffff1916827bffffffffffffffffffffffffffffffffffffffffffffffffffffffff1916149050919050565b600033905090565b816004600083815260200190815260200160002060006101000a81548173ffffffffffffffffffffffffffffffffffffffff021916908373ffffffffffffffffffffffffffffffffffffffff160217905550808273ffffffffffffffffffffffffffffffffffffffff16611e78836111fb565b73ffffffffffffffffffffffffffffffffffffffff167f8c5be1e5ebec7d5bd14f71427d1e84f3dd0314c0f7b2291e5b200ac8c7c3b92560405160405180910390a45050565b6000611ec982611d27565b611f08576040517f08c379a0000000000000000000000000000000000000000000000000000000008152600401611eff90613584565b60405180910390fd5b6000611f13836111fb565b90508073ffffffffffffffffffffffffffffffffffffffff168473ffffffffffffffffffffffffffffffffffffffff161480611f555750611f548185611ae3565b5b80611f9357508373ffffffffffffffffffffffffffffffffffffffff16611f7b8461097f565b73ffffffffffffffffffffffffffffffffffffffff16145b91505092915050565b8273ffffffffffffffffffffffffffffffffffffffff16611fbc826111fb565b73ffffffffffffffffffffffffffffffffffffffff1614612012576040517f08c379a000000000000000000000000000000000000000000000000000000000815260040161200990613504565b60405180910390fd5b600073ffffffffffffffffffffffffffffffffffffffff168273ffffffffffffffffffffffffffffffffffffffff161415612082576040517f08c379a000000000000000000000000000000000000000000000000000000000815260040161207990613544565b60405180910390fd5b61208d838383612707565b612098600082611e05565b6001600360008573ffffffffffffffffffffffffffffffffffffffff1673ffffffffffffffffffffffffffffffffffffffff16815260200190815260200160002060008282546120e8919061388f565b925050819055506001600360008473ffffffffffffffffffffffffffffffffffffffff1673ffffffffffffffffffffffffffffffffffffffff168152602001908152602001600020600082825461213f9190613808565b92505081905550816002600083815260200190815260200160002060006101000a81548173ffffffffffffffffffffffffffffffffffffffff021916908373ffffffffffffffffffffffffffffffffffffffff160217905550808273ffffffffffffffffffffffffffffffffffffffff168473ffffffffffffffffffffffffffffffffffffffff167fddf252ad1be2c89b69c2b068fc378daa952ba7f163c4a11628f55a4df523b3ef60405160405180910390a46121fe83838361270c565b505050565b6060600082141561224b576040518060400160405280600181526020017f3000000000000000000000000000000000000000000000000000000000000000815250905061235f565b600082905060005b6000821461227d578080612266906139dc565b915050600a82612276919061385e565b9150612253565b60008167ffffffffffffffff81111561229957612298613b12565b5b6040519080825280601f01601f1916602001820160405280156122cb5781602001600182028036833780820191505090505b5090505b60008514612358576001826122e4919061388f565b9150600a856122f39190613a25565b60306122ff9190613808565b60f81b81838151811061231557612314613ae3565b5b60200101907effffffffffffffffffffffffffffffffffffffffffffffffffffffffffffff1916908160001a905350600a85612351919061385e565b94506122cf565b8093505050505b919050565b600073ffffffffffffffffffffffffffffffffffffffff168273ffffffffffffffffffffffffffffffffffffffff1614156123d4576040517f08c379a00000000000000000000000000000000000000000000000000000000081526004016123cb90613604565b60405180910390fd5b6123dd81611d27565b1561241d576040517f08c379a000000000000000000000000000000000000000000000000000000000815260040161241490613524565b60405180910390fd5b61242960008383612707565b6001600360008473ffffffffffffffffffffffffffffffffffffffff1673ffffffffffffffffffffffffffffffffffffffff16815260200190815260200160002060008282546124799190613808565b92505081905550816002600083815260200190815260200160002060006101000a81548173ffffffffffffffffffffffffffffffffffffffff021916908373ffffffffffffffffffffffffffffffffffffffff160217905550808273ffffffffffffffffffffffffffffffffffffffff16600073ffffffffffffffffffffffffffffffffffffffff167fddf252ad1be2c89b69c2b068fc378daa952ba7f163c4a11628f55a4df523b3ef60405160405180910390a461253a6000838361270c565b5050565b8173ffffffffffffffffffffffffffffffffffffffff168373ffffffffffffffffffffffffffffffffffffffff1614156125ad576040517f08c379a00000000000000000000000000000000000000000000000000000000081526004016125a490613564565b60405180910390fd5b80600560008573ffffffffffffffffffffffffffffffffffffffff1673ffffffffffffffffffffffffffffffffffffffff16815260200190815260200160002060008473ffffffffffffffffffffffffffffffffffffffff1673ffffffffffffffffffffffffffffffffffffffff16815260200190815260200160002060006101000a81548160ff0219169083151502179055508173ffffffffffffffffffffffffffffffffffffffff168373ffffffffffffffffffffffffffffffffffffffff167f17307eab39ab6107e8899845ad3d59bd9653f200f220920489ca2b5937696c318360405161269e91906134a7565b60405180910390a3505050565b6126b6848484611f9c565b6126c284848484612711565b612701576040517f08c379a00000000000000000000000000000000000000000000000000000000081526004016126f8906134e4565b60405180910390fd5b50505050565b505050565b505050565b60006127328473ffffffffffffffffffffffffffffffffffffffff166128a8565b1561289b578373ffffffffffffffffffffffffffffffffffffffff1663150b7a0261275b611dfd565b8786866040518563ffffffff1660e01b815260040161277d9493929190613439565b602060405180830381600087803b15801561279757600080fd5b505af19250505080156127c857506040513d601f19601f820116820180604052508101906127c59190612dcd565b60015b61284b573d80600081146127f8576040519150601f19603f3d011682016040523d82523d6000602084013e6127fd565b606091505b50600081511415612843576040517f08c379a000000000000000000000000000000000000000000000000000000000815260040161283a906134e4565b60405180910390fd5b805181602001fd5b63150b7a0260e01b7bffffffffffffffffffffffffffffffffffffffffffffffffffffffff1916817bffffffffffffffffffffffffffffffffffffffffffffffffffffffff1916149150506128a0565b600190505b949350505050565b6000808273ffffffffffffffffffffffffffffffffffffffff163b119050919050565b8280546128d790613979565b90600052602060002090601f0160209004810192826128f95760008555612940565b82601f1061291257805160ff1916838001178555612940565b82800160010185558215612940579182015b8281111561293f578251825591602001919060010190612924565b5b50905061294d91906129a4565b5090565b8260028101928215612993579160200282015b828111156129925782518290805190602001906129829291906128cb565b5091602001919060010190612964565b5b5090506129a091906129c1565b5090565b5b808211156129bd5760008160009055506001016129a5565b5090565b5b808211156129e157600081816129d891906129e5565b506001016129c2565b5090565b5080546129f190613979565b6000825580601f10612a035750612a22565b601f016020900490600052602060002090810190612a2191906129a4565b5b50565b6000612a38612a3384613704565b6136df565b905082815260208101848484011115612a5457612a53613b46565b5b612a5f848285613937565b509392505050565b6000612a7a612a7584613735565b6136df565b905082815260208101848484011115612a9657612a95613b46565b5b612aa1848285613937565b509392505050565b600081359050612ab881613f95565b92915050565b600081359050612acd81613fac565b92915050565b600081359050612ae281613fc3565b92915050565b600081519050612af781613fc3565b92915050565b600082601f830112612b1257612b11613b41565b5b8135612b22848260208601612a25565b91505092915050565b600082601f830112612b4057612b3f613b41565b5b8135612b50848260208601612a67565b91505092915050565b600081359050612b6881613fda565b92915050565b600060208284031215612b8457612b83613b50565b5b6000612b9284828501612aa9565b91505092915050565b60008060408385031215612bb257612bb1613b50565b5b6000612bc085828601612aa9565b9250506020612bd185828601612aa9565b9150509250929050565b600080600060608486031215612bf457612bf3613b50565b5b6000612c0286828701612aa9565b9350506020612c1386828701612aa9565b9250506040612c2486828701612b59565b9150509250925092565b60008060008060808587031215612c4857612c47613b50565b5b6000612c5687828801612aa9565b9450506020612c6787828801612aa9565b9350506040612c7887828801612b59565b925050606085013567ffffffffffffffff811115612c9957612c98613b4b565b5b612ca587828801612afd565b91505092959194509250565b60008060408385031215612cc857612cc7613b50565b5b6000612cd685828601612aa9565b9250506020612ce785828601612abe565b9150509250929050565b600080600060608486031215612d0a57612d09613b50565b5b6000612d1886828701612aa9565b935050602084013567ffffffffffffffff811115612d3957612d38613b4b565b5b612d4586828701612b2b565b9250506040612d5686828701612b59565b9150509250925092565b60008060408385031215612d7757612d76613b50565b5b6000612d8585828601612aa9565b9250506020612d9685828601612b59565b9150509250929050565b600060208284031215612db657612db5613b50565b5b6000612dc484828501612ad3565b91505092915050565b600060208284031215612de357612de2613b50565b5b6000612df184828501612ae8565b91505092915050565b600060208284031215612e1057612e0f613b50565b5b600082013567ffffffffffffffff811115612e2e57612e2d613b4b565b5b612e3a84828501612b2b565b91505092915050565b600060208284031215612e5957612e58613b50565b5b6000612e6784828501612b59565b91505092915050565b60008060408385031215612e8757612e86613b50565b5b6000612e9585828601612b59565b925050602083013567ffffffffffffffff811115612eb657612eb5613b4b565b5b612ec285828601612b2b565b9150509250929050565b60008060008060808587031215612ee657612ee5613b50565b5b6000612ef487828801612b59565b945050602085013567ffffffffffffffff811115612f1557612f14613b4b565b5b612f2187828801612b2b565b935050604085013567ffffffffffffffff811115612f4257612f41613b4b565b5b612f4e87828801612b2b565b9250506060612f5f87828801612b59565b91505092959194509250565b60008060408385031215612f8257612f81613b50565b5b6000612f9085828601612b59565b9250506020612fa185828601612b59565b9150509250929050565b600080600060608486031215612fc457612fc3613b50565b5b6000612fd286828701612b59565b9350506020612fe386828701612b59565b925050604084013567ffffffffffffffff81111561300457613003613b4b565b5b61301086828701612b2b565b9150509250925092565b60006130268383613179565b905092915050565b613037816138c3565b82525050565b60006130488261378b565b61305281856137b9565b93508360208202850161306485613766565b8060005b858110156130a05784840389528151613081858261301a565b945061308c836137ac565b925060208a01995050600181019050613068565b50829750879550505050505092915050565b6130bb816138d5565b82525050565b60006130cc82613796565b6130d681856137ca565b93506130e6818560208601613946565b6130ef81613b55565b840191505092915050565b6000815461310781613979565b61311181866137db565b9450600182166000811461312c576001811461313d57613170565b60ff19831686528186019350613170565b61314685613776565b60005b8381101561316857815481890152600182019150602081019050613149565b838801955050505b50505092915050565b6000613184826137a1565b61318e81856137e6565b935061319e818560208601613946565b6131a781613b55565b840191505092915050565b60006131bd826137a1565b6131c781856137f7565b93506131d7818560208601613946565b6131e081613b55565b840191505092915050565b60006131f86032836137f7565b915061320382613b66565b604082019050919050565b600061321b6025836137f7565b915061322682613bb5565b604082019050919050565b600061323e601c836137f7565b915061324982613c04565b602082019050919050565b60006132616024836137f7565b915061326c82613c2d565b604082019050919050565b60006132846019836137f7565b915061328f82613c7c565b602082019050919050565b60006132a7602c836137f7565b91506132b282613ca5565b604082019050919050565b60006132ca6038836137f7565b91506132d582613cf4565b604082019050919050565b60006132ed602a836137f7565b91506132f882613d43565b604082019050919050565b60006133106029836137f7565b915061331b82613d92565b604082019050919050565b60006133336020836137f7565b915061333e82613de1565b602082019050919050565b6000613356602c836137f7565b915061336182613e0a565b604082019050919050565b6000613379602c836137f7565b915061338482613e59565b604082019050919050565b600061339c602f836137f7565b91506133a782613ea8565b604082019050919050565b60006133bf6021836137f7565b91506133ca82613ef7565b604082019050919050565b60006133e26031836137f7565b91506133ed82613f46565b604082019050919050565b6134018161392d565b82525050565b600061341382846130fa565b915081905092915050565b6000602082019050613433600083018461302e565b92915050565b600060808201905061344e600083018761302e565b61345b602083018661302e565b61346860408301856133f8565b818103606083015261347a81846130c1565b905095945050505050565b6000602082019050818103600083015261349f818461303d565b905092915050565b60006020820190506134bc60008301846130b2565b92915050565b600060208201905081810360008301526134dc81846131b2565b905092915050565b600060208201905081810360008301526134fd816131eb565b9050919050565b6000602082019050818103600083015261351d8161320e565b9050919050565b6000602082019050818103600083015261353d81613231565b9050919050565b6000602082019050818103600083015261355d81613254565b9050919050565b6000602082019050818103600083015261357d81613277565b9050919050565b6000602082019050818103600083015261359d8161329a565b9050919050565b600060208201905081810360008301526135bd816132bd565b9050919050565b600060208201905081810360008301526135dd816132e0565b9050919050565b600060208201905081810360008301526135fd81613303565b9050919050565b6000602082019050818103600083015261361d81613326565b9050919050565b6000602082019050818103600083015261363d81613349565b9050919050565b6000602082019050818103600083015261365d8161336c565b9050919050565b6000602082019050818103600083015261367d8161338f565b9050919050565b6000602082019050818103600083015261369d816133b2565b9050919050565b600060208201905081810360008301526136bd816133d5565b9050919050565b60006020820190506136d960008301846133f8565b92915050565b60006136e96136fa565b90506136f582826139ab565b919050565b6000604051905090565b600067ffffffffffffffff82111561371f5761371e613b12565b5b61372882613b55565b9050602081019050919050565b600067ffffffffffffffff8211156137505761374f613b12565b5b61375982613b55565b9050602081019050919050565b6000819050602082019050919050565b60008190508160005260206000209050919050565b600081519050919050565b600081519050919050565b600081519050919050565b6000602082019050919050565b600082825260208201905092915050565b600082825260208201905092915050565b600081905092915050565b600082825260208201905092915050565b600082825260208201905092915050565b60006138138261392d565b915061381e8361392d565b9250827fffffffffffffffffffffffffffffffffffffffffffffffffffffffffffffffff0382111561385357613852613a56565b5b828201905092915050565b60006138698261392d565b91506138748361392d565b92508261388457613883613a85565b5b828204905092915050565b600061389a8261392d565b91506138a58361392d565b9250828210156138b8576138b7613a56565b5b828203905092915050565b60006138ce8261390d565b9050919050565b60008115159050919050565b60007fffffffff0000000000000000000000000000000000000000000000000000000082169050919050565b600073ffffffffffffffffffffffffffffffffffffffff82169050919050565b6000819050919050565b82818337600083830152505050565b60005b83811015613964578082015181840152602081019050613949565b83811115613973576000848401525b50505050565b6000600282049050600182168061399157607f821691505b602082108114156139a5576139a4613ab4565b5b50919050565b6139b482613b55565b810181811067ffffffffffffffff821117156139d3576139d2613b12565b5b80604052505050565b60006139e78261392d565b91507fffffffffffffffffffffffffffffffffffffffffffffffffffffffffffffffff821415613a1a57613a19613a56565b5b600182019050919050565b6000613a308261392d565b9150613a3b8361392d565b925082613a4b57613a4a613a85565b5b828206905092915050565b7f4e487b7100000000000000000000000000000000000000000000000000000000600052601160045260246000fd5b7f4e487b7100000000000000000000000000000000000000000000000000000000600052601260045260246000fd5b7f4e487b7100000000000000000000000000000000000000000000000000000000600052602260045260246000fd5b7f4e487b7100000000000000000000000000000000000000000000000000000000600052603260045260246000fd5b7f4e487b7100000000000000000000000000000000000000000000000000000000600052604160045260246000fd5b600080fd5b600080fd5b600080fd5b600080fd5b6000601f19601f8301169050919050565b7f4552433732313a207472616e7366657220746f206e6f6e20455243373231526560008201527f63656976657220696d706c656d656e7465720000000000000000000000000000602082015250565b7f4552433732313a207472616e736665722066726f6d20696e636f72726563742060008201527f6f776e6572000000000000000000000000000000000000000000000000000000602082015250565b7f4552433732313a20746f6b656e20616c7265616479206d696e74656400000000600082015250565b7f4552433732313a207472616e7366657220746f20746865207a65726f2061646460008201527f7265737300000000000000000000000000000000000000000000000000000000602082015250565b7f4552433732313a20617070726f766520746f2063616c6c657200000000000000600082015250565b7f4552433732313a206f70657261746f7220717565727920666f72206e6f6e657860008201527f697374656e7420746f6b656e0000000000000000000000000000000000000000602082015250565b7f4552433732313a20617070726f76652063616c6c6572206973206e6f74206f7760008201527f6e6572206e6f7220617070726f76656420666f7220616c6c0000000000000000602082015250565b7f4552433732313a2062616c616e636520717565727920666f7220746865207a6560008201527f726f206164647265737300000000000000000000000000000000000000000000602082015250565b7f4552433732313a206f776e657220717565727920666f72206e6f6e657869737460008201527f656e7420746f6b656e0000000000000000000000000000000000000000000000602082015250565b7f4552433732313a206d696e7420746f20746865207a65726f2061646472657373600082015250565b7f4552433732313a20617070726f76656420717565727920666f72206e6f6e657860008201527f697374656e7420746f6b656e0000000000000000000000000000000000000000602082015250565b7f4552433732314d657461646174613a2055524920736574206f66206e6f6e657860008201527f697374656e7420746f6b656e0000000000000000000000000000000000000000602082015250565b7f4552433732314d657461646174613a2055524920717565727920666f72206e6f60008201527f6e6578697374656e7420746f6b656e0000000000000000000000000000000000602082015250565b7f4552433732313a20617070726f76616c20746f2063757272656e74206f776e6560008201527f7200000000000000000000000000000000000000000000000000000000000000602082015250565b7f4552433732313a207472616e736665722063616c6c6572206973206e6f74206f60008201527f776e6572206e6f7220617070726f766564000000000000000000000000000000602082015250565b613f9e816138c3565b8114613fa957600080fd5b50565b613fb5816138d5565b8114613fc057600080fd5b50565b613fcc816138e1565b8114613fd757600080fd5b50565b613fe38161392d565b8114613fee57600080fd5b5056fea264697066735822122006fcb714117efd538cce50c470a22e3e3b17b46669e6f62cf41017c1370afeea64736f6c63430008060033",
  "linkReferences": {},
  "deployedLinkReferences": {}
}